{
    "contractName": "BlindAuction",
    "abi": [
        {
            "inputs": [
                {
                    "internalType": "uint256",
                    "name": "_biddingTime",
                    "type": "uint256"
                },
                {
                    "internalType": "address payable",
                    "name": "_beneficiary",
                    "type": "address"
                }
            ],
            "stateMutability": "nonpayable",
            "type": "constructor"
        },
        {
            "anonymous": false,
            "inputs": [
                {
                    "indexed": false,
                    "internalType": "address",
                    "name": "winner",
                    "type": "address"
                },
                {
                    "indexed": false,
                    "internalType": "uint256",
                    "name": "amount",
                    "type": "uint256"
                }
            ],
            "name": "AuctionEnded",
            "type": "event"
        },
        {
            "anonymous": false,
            "inputs": [
                {
                    "indexed": false,
                    "internalType": "address",
                    "name": "bidder",
                    "type": "address"
                },
                {
                    "indexed": false,
                    "internalType": "uint256",
                    "name": "amount",
                    "type": "uint256"
                }
            ],
            "name": "HighestBidIncreased",
            "type": "event"
        },
        {
            "inputs": [],
            "name": "auctionEnd",
            "outputs": [],
            "stateMutability": "nonpayable",
            "type": "function"
        },
        {
            "inputs": [],
            "name": "auctionEndTime",
            "outputs": [
                {
                    "internalType": "uint256",
                    "name": "",
                    "type": "uint256"
                }
            ],
            "stateMutability": "view",
            "type": "function"
        },
        {
            "inputs": [],
            "name": "beneficiary",
            "outputs": [
                {
                    "internalType": "address payable",
                    "name": "",
                    "type": "address"
                }
            ],
            "stateMutability": "view",
            "type": "function"
        },
        {
            "inputs": [],
            "name": "bid",
            "outputs": [],
            "stateMutability": "payable",
            "type": "function"
        },
        {
            "inputs": [],
            "name": "highestBid",
            "outputs": [
                {
                    "internalType": "uint256",
                    "name": "",
                    "type": "uint256"
                }
            ],
            "stateMutability": "view",
            "type": "function"
        },
        {
            "inputs": [],
            "name": "highestBidder",
            "outputs": [
                {
                    "internalType": "address",
                    "name": "",
                    "type": "address"
                }
            ],
            "stateMutability": "view",
            "type": "function"
        },
        {
            "inputs": [],
            "name": "withdraw",
            "outputs": [
                {
                    "internalType": "bool",
                    "name": "",
                    "type": "bool"
                }
            ],
            "stateMutability": "nonpayable",
            "type": "function"
        }
    ],
    "bytecode": "608060405234801561001057600080fd5b506040516104de3803806104de8339818101604052604081101561003357600080fd5b508051602090910151600080546001600160a01b039092166001600160a01b0319909216919091179055420160015561046d806100716000396000f3fe6080604052600436106100705760003560e01c80633ccfd60b1161004e5780633ccfd60b146100c55780634b449cba146100ee57806391f9015714610115578063d57bde791461012a57610070565b80631998aeef146100755780632a24f46c1461007f57806338af3eed14610094575b600080fd5b61007d61013f565b005b34801561008b57600080fd5b5061007d610269565b3480156100a057600080fd5b506100a96103a6565b604080516001600160a01b039092168252519081900360200190f35b3480156100d157600080fd5b506100da6103b5565b604080519115158252519081900360200190f35b3480156100fa57600080fd5b5061010361041c565b60408051918252519081900360200190f35b34801561012157600080fd5b506100a9610422565b34801561013657600080fd5b50610103610431565b60015442111561018d576040805162461bcd60e51b8152602060048201526014602482015273105d58dd1a5bdb88185b1958591e48195b99195960621b604482015290519081900360640190fd5b60035434116101e3576040805162461bcd60e51b815260206004820152601d60248201527f546865726520697320616c726561647920612068696768657220626964000000604482015290519081900360640190fd5b60035415610210576003546002546001600160a01b03166000908152600460205260409020805490910190555b346003819055600280546001600160a01b0319163390811790915560408051918252602082019290925281517ff4757a49b326036464bec6fe419a4ae38c8a02ce3e68bf0809674f6aab8ad300929181900390910190a1565b6001544210156102b8576040805162461bcd60e51b8152602060048201526015602482015274105d58dd1a5bdb881b9bdd081e595d08195b991959605a1b604482015290519081900360640190fd5b60055460ff1615610310576040805162461bcd60e51b815260206004820152601960248201527f41756374696f6e2068617320616c726561647920656e64656400000000000000604482015290519081900360640190fd5b6005805460ff19166001179055600254600354604080516001600160a01b039093168352602083019190915280517fdaec4582d5d9595688c8c98545fdd1c696d41c6aeaeb636737e84ed2f5c00eda9281900390910190a1600080546003546040516001600160a01b039092169281156108fc029290818181858888f193505050501580156103a3573d6000803e3d6000fd5b50565b6000546001600160a01b031681565b33600090815260046020526040812054801561041357336000818152600460205260408082208290555183156108fc0291849190818181858888f1935050505061041357336000908152600460205260408120919091559050610419565b60019150505b90565b60015481565b6002546001600160a01b031681565b6003548156fea26469706673582212200fa7b7375d725eb87c77ae6195e6ef2e6b9318cac147881d9b66fb8521afde0664736f6c63430006040033",
    "sourcePath": "c:/Users/prakh/Desktop/ethereum/smart-contracts/blind auction/blindAuction.sol",
    "compiler": {
        "name": "solc",
        "version": "0.6.4+commit.1dca32f3"
    },
    "functionHashes": {
        "auctionEnd()": "2a24f46c",
        "auctionEndTime()": "4b449cba",
        "beneficiary()": "38af3eed",
        "bid()": "1998aeef",
        "highestBid()": "d57bde79",
        "highestBidder()": "91f90157",
        "withdraw()": "3ccfd60b"
    },
    "gasEstimates": {
        "creation": {
            "codeDepositCost": "226600",
            "executionCost": "infinite",
            "totalCost": "infinite"
        },
        "external": {
            "auctionEnd()": "infinite",
            "auctionEndTime()": "1020",
            "beneficiary()": "1082",
            "bid()": "67297",
            "highestBid()": "1064",
            "highestBidder()": "1081",
            "withdraw()": "infinite"
        }
    }
}