{
  "contractName": "Auction",
  "abi": [
    {
      "inputs": [],
      "payable": true,
      "stateMutability": "payable",
      "type": "constructor"
    },
    {
      "constant": true,
      "inputs": [],
      "name": "beneficiary",
      "outputs": [
        {
          "internalType": "address",
          "name": "",
          "type": "address"
        }
      ],
      "payable": false,
      "stateMutability": "view",
      "type": "function"
    },
    {
      "constant": true,
      "inputs": [
        {
          "internalType": "uint256",
          "name": "",
          "type": "uint256"
        }
      ],
      "name": "items",
      "outputs": [
        {
          "internalType": "uint256",
          "name": "itemId",
          "type": "uint256"
        }
      ],
      "payable": false,
      "stateMutability": "view",
      "type": "function"
    },
    {
      "constant": true,
      "inputs": [
        {
          "internalType": "uint256",
          "name": "",
          "type": "uint256"
        }
      ],
      "name": "winners",
      "outputs": [
        {
          "internalType": "address",
          "name": "",
          "type": "address"
        }
      ],
      "payable": false,
      "stateMutability": "view",
      "type": "function"
    },
    {
      "constant": false,
      "inputs": [],
      "name": "register",
      "outputs": [],
      "payable": true,
      "stateMutability": "payable",
      "type": "function"
    },
    {
      "constant": false,
      "inputs": [
        {
          "internalType": "uint256",
          "name": "_itemId",
          "type": "uint256"
        },
        {
          "internalType": "uint256",
          "name": "_count",
          "type": "uint256"
        }
      ],
      "name": "bid",
      "outputs": [],
      "payable": true,
      "stateMutability": "payable",
      "type": "function"
    },
    {
      "constant": false,
      "inputs": [],
      "name": "revealWinners",
      "outputs": [],
      "payable": false,
      "stateMutability": "nonpayable",
      "type": "function"
    },
    {
      "constant": true,
      "inputs": [
        {
          "internalType": "uint256",
          "name": "id",
          "type": "uint256"
        }
      ],
      "name": "getPersonDetails",
      "outputs": [
        {
          "internalType": "uint256",
          "name": "",
          "type": "uint256"
        },
        {
          "internalType": "uint256",
          "name": "",
          "type": "uint256"
        },
        {
          "internalType": "address",
          "name": "",
          "type": "address"
        }
      ],
      "payable": false,
      "stateMutability": "view",
      "type": "function"
    }
  ],
  "bytecode": "0x6080604052600060175533601660006101000a81548173ffffffffffffffffffffffffffffffffffffffff021916908373ffffffffffffffffffffffffffffffffffffffff160217905550606060405180604001604052806000815260200182815250600d60006003811061007057fe5b6002020160008201518160000155602082015181600101908051906020019061009a929190610148565b5090505060405180604001604052806001815260200182815250600d6001600381106100c257fe5b600202016000820151816000015560208201518160010190805190602001906100ec929190610148565b5090505060405180604001604052806002815260200182815250600d60026003811061011457fe5b6002020160008201518160000155602082015181600101908051906020019061013e929190610148565b50905050506101ba565b828054828255906000526020600020908101928215610184579160200282015b82811115610183578251825591602001919060010190610168565b5b5090506101919190610195565b5090565b6101b791905b808211156101b357600081600090555060010161019b565b5090565b90565b610a6b806101c96000396000f3fe6080604052600436106100705760003560e01c8063609817051161004e578063609817051461010e578063952587d614610197578063a2fb1175146101ae578063bfb231d21461022957610070565b80631aa3a0081461007557806338af3eed1461007f578063598647f8146100d6575b600080fd5b61007d610278565b005b34801561008b57600080fd5b506100946103e9565b604051808273ffffffffffffffffffffffffffffffffffffffff1673ffffffffffffffffffffffffffffffffffffffff16815260200191505060405180910390f35b61010c600480360360408110156100ec57600080fd5b81019080803590602001909291908035906020019092919050505061040f565b005b34801561011a57600080fd5b506101476004803603602081101561013157600080fd5b8101908080359060200190929190505050610772565b604051808481526020018381526020018273ffffffffffffffffffffffffffffffffffffffff1673ffffffffffffffffffffffffffffffffffffffff168152602001935050505060405180910390f35b3480156101a357600080fd5b506101ac6107e3565b005b3480156101ba57600080fd5b506101e7600480360360208110156101d157600080fd5b81019080803590602001909291905050506109b1565b604051808273ffffffffffffffffffffffffffffffffffffffff1673ffffffffffffffffffffffffffffffffffffffff16815260200191505060405180910390f35b34801561023557600080fd5b506102626004803603602081101561024c57600080fd5b81019080803590602001909291905050506109e4565b6040518082815260200191505060405180910390f35b60175460016017546004811061028a57fe5b6003020160010181905550336001601754600481106102a557fe5b6003020160020160006101000a81548173ffffffffffffffffffffffffffffffffffffffff021916908373ffffffffffffffffffffffffffffffffffffffff16021790555060056001601754600481106102fb57fe5b600302016000018190555060016017546004811061031557fe5b600302016000803373ffffffffffffffffffffffffffffffffffffffff1673ffffffffffffffffffffffffffffffffffffffff16815260200190815260200160002060008201548160000155600182015481600101556002820160009054906101000a900473ffffffffffffffffffffffffffffffffffffffff168160020160006101000a81548173ffffffffffffffffffffffffffffffffffffffff021916908373ffffffffffffffffffffffffffffffffffffffff160217905550905050601760008154809291906001019190505550565b601660009054906101000a900473ffffffffffffffffffffffffffffffffffffffff1681565b806000803373ffffffffffffffffffffffffffffffffffffffff1673ffffffffffffffffffffffffffffffffffffffff16815260200190815260200160002060000154108061045e5750600282115b156104b4576040517f08c379a0000000000000000000000000000000000000000000000000000000008152600401808060200182810382526031815260200180610a066031913960400191505060405180910390fd5b60008060003373ffffffffffffffffffffffffffffffffffffffff1673ffffffffffffffffffffffffffffffffffffffff16815260200190815260200160002060000154141561056c576040517f08c379a000000000000000000000000000000000000000000000000000000000815260040180806020018281038252601b8152602001807f6e6f7420656e6f7567682072656d61696e696e6720746f6b656e73000000000081525060200191505060405180910390fd5b60028211156105e3576040517f08c379a000000000000000000000000000000000000000000000000000000000815260040180806020018281038252600e8152602001807f6974656d496420696e76616c696400000000000000000000000000000000000081525060200191505060405180910390fd5b806000803373ffffffffffffffffffffffffffffffffffffffff1673ffffffffffffffffffffffffffffffffffffffff168152602001908152602001600020600001600082825403925050819055506000803373ffffffffffffffffffffffffffffffffffffffff1673ffffffffffffffffffffffffffffffffffffffff1681526020019081526020016000206000015460016000803373ffffffffffffffffffffffffffffffffffffffff1673ffffffffffffffffffffffffffffffffffffffff16815260200190815260200160002060010154600481106106c257fe5b60030201600001819055506000600d83600381106106dc57fe5b60020201905060008090505b8281101561076c57816001016000803373ffffffffffffffffffffffffffffffffffffffff1673ffffffffffffffffffffffffffffffffffffffff16815260200190815260200160002060010154908060018154018082558091505090600182039060005260206000200160009091929091909150555080806001019150506106e8565b50505050565b60008060006001846004811061078457fe5b60030201600001546001856004811061079957fe5b6003020160010154600186600481106107ae57fe5b6003020160020160009054906101000a900473ffffffffffffffffffffffffffffffffffffffff169250925092509193909250565b601660009054906101000a900473ffffffffffffffffffffffffffffffffffffffff1673ffffffffffffffffffffffffffffffffffffffff163373ffffffffffffffffffffffffffffffffffffffff16146108a6576040517f08c379a00000000000000000000000000000000000000000000000000000000081526004018080602001828103825260158152602001807f4f6e6c79206f776e65722063616e2072657665616c000000000000000000000081525060200191505060405180910390fd5b60008090505b60038110156109ae576000600d82600381106108c457fe5b60020201905060008160010180549050146109a05760008160010180549050826001018054905043816108f357fe5b04816108fb57fe5b069050600082600101828154811061090f57fe5b906000526020600020015490506001816004811061092957fe5b6003020160020160009054906101000a900473ffffffffffffffffffffffffffffffffffffffff166013856003811061095e57fe5b0160006101000a81548173ffffffffffffffffffffffffffffffffffffffff021916908373ffffffffffffffffffffffffffffffffffffffff16021790555050505b5080806001019150506108ac565b50565b601381600381106109be57fe5b016000915054906101000a900473ffffffffffffffffffffffffffffffffffffffff1681565b600d81600381106109f157fe5b60020201600091509050806000015490508156fe6e6f7420656e6f7567682072656d61696e696e6720746f6b656e732c20656e7465722061206c65737365722076616c7565a265627a7a72315820c8e43b4fdcc5f1bcae0e2675883bdc0f47f6fcfaadff95041d6a09a81ef7215264736f6c63430005100032",
  "source": "pragma solidity >=0.4.22 <0.7.0;\r\n\r\ncontract Auction {\r\n\r\n    struct Item {\r\n        uint itemId;\r\n        uint[] itemTokens;\r\n    }\r\n\r\n    struct Person {\r\n        uint remainingTokens;\r\n        uint personId;\r\n        address addr;\r\n    }\r\n    mapping(address => Person) tokenDetails;\r\n    Person[4] bidders;\r\n    Item[3] public items;\r\n    address[3] public winners;\r\n    address public beneficiary;\r\n\r\n    uint bidderCount=0;\r\n\r\n    constructor() public payable{\r\n\r\n        beneficiary = msg.sender;\r\n\r\n        uint[] memory emptyArray;\r\n        items[0] = Item({itemId:0,itemTokens:emptyArray});\r\n        items[1] = Item({itemId:1, itemTokens:emptyArray});\r\n        items[2] = Item({itemId:2, itemTokens:emptyArray});\r\n    }\r\n\r\n    modifier onlyOwnerCanReveal() {\r\n        require(msg.sender==beneficiary, \"Only owner can reveal\"); _;}\r\n\r\n    function register() public payable{\r\n        bidders[bidderCount].personId = bidderCount;\r\n        bidders[bidderCount].addr = msg.sender;\r\n        bidders[bidderCount].remainingTokens = 5;\r\n        tokenDetails[msg.sender] = bidders[bidderCount];\r\n        bidderCount++;\r\n    }\r\n    function bid(uint _itemId, uint _count) public payable{\r\n        if(tokenDetails[msg.sender].remainingTokens < _count || _itemId>2 ) revert(\"not enough remaining tokens, enter a lesser value\");\r\n        if(tokenDetails[msg.sender].remainingTokens == 0 ) revert(\"not enough remaining tokens\");\r\n        if(_itemId>2 ) revert(\"itemId invalid\");\r\n        tokenDetails[msg.sender].remainingTokens -= _count;\r\n        bidders[tokenDetails[msg.sender].personId].remainingTokens = tokenDetails[msg.sender].remainingTokens;\r\n        Item storage bidItem = items[_itemId];\r\n        for(uint i = 0; i < _count; i++) {\r\n        bidItem.itemTokens.push(tokenDetails[msg.sender].personId);\r\n        }\r\n    }\r\n    function revealWinners() public onlyOwnerCanReveal {\r\n\r\n        for (uint id = 0; id < 3; id++) {\r\n        Item storage currentItem = items[id];\r\n        if(currentItem.itemTokens.length != 0){\r\n            uint randomIndex = (block.number / currentItem.itemTokens.length) % currentItem.itemTokens.length;\r\n            uint winnerId = currentItem.itemTokens[randomIndex];\r\n            winners[id] = bidders[winnerId].addr;\r\n            }\r\n        }\r\n    }\r\n\r\n    function getPersonDetails(uint id) public view returns(uint,uint,address){\r\n        return (bidders[id].remainingTokens,bidders[id].personId,bidders[id].addr);\r\n    }\r\n}",
  "sourcePath": "C:\\Users\\prakh\\Desktop\\nuonetwork\\auction\\contracts\\Auction.sol",
  "compiler": {
    "name": "solc",
    "version": "0.5.16+commit.9c3226ce.Emscripten.clang"
  },
  "schemaVersion": "3.0.23",
  "updatedAt": "2020-03-25T03:56:17.460Z",
  "devdoc": {
    "methods": {}
  },
  "userdoc": {
    "methods": {}
  }
}